:100000000C945E000C9486000C9486000C94860080
:100010000C9486000C9486000C9486000C946E025E
:100020000C9486000C9486000C9486000C94860038
:100030000C9486000C9486000C9486000C94860028
:100040000C9422030C9486000C94F0020C94CA02C7
:100050000C9486000C9486000C9486000C94860008
:100060000C9486000C9486000000000024002700F9
:100070002A0000000008000201000003040700003D
:10008000000000000000010204081020408001026E
:1000900004081020010204081020000000002500C0
:1000A00028002B00040404040404040402020202D5
:1000B000020203030303030302006D0511241FBEA4
:1000C000CFEFD8E0DEBFCDBF11E0A0E0B1E0E8E8BF
:1000D000FBE002C005900D92A032B107D9F721E0F4
:1000E000A0E2B1E001C01D92A73DB207E1F710E028
:1000F000CEE5D0E004C02197FE010E94BC05CD35BD
:10010000D107C9F70E946C030C94C2050C9400003F
:100110009091000189130DC0E8EBF0E0E4919FEFAE
:1001200090930001E13009F431C068F1E23009F444
:1001300033C090E0FC01EE58FF4F2491FC01EA57D8
:10014000FF4F3491FC01EC55FF4FE491EE23D1F0C9
:10015000222351F0233009F43AC078F5213009F414
:100160003CC0223009F43DC0F0E0EE0FFF1FE65620
:10017000FF4FA591B4918FB7F894EC9130953E2341
:100180003C938FBF089510926E00D3CF90916F0073
:100190009D7F90936F00CDCF909170009D7F909345
:1001A000700091E09093B0009091B100987F9460BE
:1001B0009093B1001092B300BCCF2730A9F0283043
:1001C000C9F0243089F6809180008F7D03C0809132
:1001D00080008F7780938000C7CF84B58F7784BDF0
:1001E000C3CF84B58F7DFBCF8091B0008F77809394
:1001F000B000BACF8091B0008F7DF9CFAF92BF929F
:10020000CF92DF92EF92FF920F931F93CF93DF93E2
:100210006C017B018B01040F151FEB015E01AE1811
:10022000BF08C017D10759F06991D601ED91FC9133
:100230000190F081E02DC6010995892B79F7C50160
:10024000DF91CF911F910F91FF90EF90DF90CF90B2
:10025000BF90AF900895FC01538D448D252F30E061
:10026000842F90E0821B930B541710F0CF960895C3
:1002700001970895FC01918D828D981761F0A28DF0
:10028000AE0FBF2FB11D5D968C91928D9F5F9F73B6
:10029000928F90E008958FEF9FEF0895FC01918D6C
:1002A000828D981731F0828DE80FF11D858D90E0D9
:1002B00008958FEF9FEF0895FC01918D228D892F76
:1002C00090E0805C9F4F821B91098F73992708955E
:1002D0008AE391E00E945C0121E0892B09F420E08F
:1002E000822F089580E090E0892B29F00E94680118
:1002F00081110C9400000895FC01A48DA80FB92F62
:10030000B11DA35ABF4F2C91848D90E001968F733D
:100310009927848FA689B7892C93A089B1898C915C
:10032000837080648C93938D848D981306C00288AB
:10033000F389E02D80818F7D80830895EF92FF9275
:100340000F931F93CF93DF93EC0181E0888F9B8DF8
:100350008C8D98131AC0E889F989808185FF15C0B2
:100360009FB7F894EE89FF896083E889F9898081D5
:100370008370806480839FBF81E090E0DF91CF91A4
:100380001F910F91FF90EF900895F62E0B8D10E0C6
:100390000F5F1F4F0F731127E02E8C8D8E110CC035
:1003A0000FB607FCFACFE889F989808185FFF5CF80
:1003B000CE010E947C01F1CFEB8DEC0FFD2FF11DE2
:1003C000E35AFF4FF0829FB7F8940B8FEA89FB89BD
:1003D00080818062CFCFCF93DF93EC01888D88231B
:1003E000B9F0AA89BB89E889F9898C9185FD03C098
:1003F000808186FD0DC00FB607FCF7CF8C9185FF7D
:10040000F2CF808185FFEDCFCE010E947C01E9CF44
:10041000DF91CF910895CF93DF9390E0FC01EA57ED
:10042000FF4F24918C559F4FFC0184918823D1F07C
:1004300090E0880F991FFC01E859FF4FA591B491F6
:10044000FC01E656FF4FC591D49161110EC09FB7D4
:10045000F8948C91E22FE0958E238C932881E223EF
:10046000E8839FBFDF91CF9108958FB7F894EC9107
:10047000E22BEC938FBFF6CF3FB7F8948091250124
:1004800090912601A0912701B091280126B5A89B43
:1004900005C02F3F19F00196A11DB11D3FBFBA2F16
:1004A000A92F982F8827BC01CD01620F711D811DD6
:1004B000911D42E0660F771F881F991F4A95D1F75B
:1004C0000895FC0101900020E9F73197AF01481B26
:1004D000590BBC018AE391E00C94FE001F920F922D
:1004E0000FB60F9211242F933F934F935F936F9307
:1004F0007F938F939F93AF93BF93EF93FF938091DD
:100500002E0190912F01A0913001B0913101892BE2
:100510008A2B8B2BD1F190912901E0912A01F09146
:100520002B0180818927808380912E0190912F015A
:10053000A0913001B0913101181619061A061B0658
:100540009CF480912E0190912F01A0913001B091E7
:1005500031010197A109B10980932E0190932F01D8
:10056000A0933001B0933101FF91EF91BF91AF9112
:100570009F918F917F916F915F914F913F912F91BB
:100580000F900FBE0F901F901895809100010E9450
:100590008800EACF1F920F920FB60F9211242F936B
:1005A0003F934F935F936F937F938F939F93AF93FB
:1005B000BF93EF93FF938AE391E00E947C01FF9148
:1005C000EF91BF91AF919F918F917F916F915F91CB
:1005D0004F913F912F910F900FBE0F901F90189544
:1005E0001F920F920FB60F9211242F938F939F9308
:1005F000EF93FF93E0914A01F0914B018081E091EC
:100600005001F091510182FD1BC0908180915301F6
:100610008F5F8F7320915401821741F0E091530155
:10062000F0E0E65CFE4F958F80935301FF91EF91D0
:100630009F918F912F910F900FBE0F901F90189543
:100640008081F4CF1F920F920FB60F9211242F9337
:100650003F938F939F93AF93BF938091210190918C
:100660002201A0912301B09124013091200123E0C7
:10067000230F2D3758F50196A11DB11D20932001A0
:100680008093210190932201A0932301B093240130
:100690008091250190912601A0912701B091280118
:1006A0000196A11DB11D8093250190932601A09371
:1006B0002701B0932801BF91AF919F918F913F91F6
:1006C0002F910F900FBE0F901F90189526E8230FC3
:1006D0000296A11DB11DD2CFCF93DF93CDB7DEB768
:1006E000A1970FB6F894DEBF0FBECDBF789484B546
:1006F000826084BD84B5816084BD85B5826085BD1E
:1007000085B5816085BD80916E00816080936E00AB
:10071000109281008091810082608093810080919D
:10072000810081608093810080918000816080934E
:1007300080008091B10084608093B1008091B0000E
:1007400081608093B00080917A00846080937A0009
:1007500080917A00826080937A0080917A00816033
:1007600080937A0080917A00806880937A0010925A
:10077000C10061E08AE00E940B0260E083E10E9418
:100780000B02E0914A01F0914B0182E08083E091FD
:100790004601F09147011082E0914801F091490132
:1007A0008FEC808310925201E0914E01F0914F0145
:1007B00086E08083E0914C01F0914D018081806161
:1007C0008083E0914C01F0914D01808188608083AD
:1007D000E0914C01F0914D01808180688083E0912F
:1007E0004C01F0914D0180818F7D80834EEA242E53
:1007F00040E0342E50E9C52EDD24D394E12CF12CB9
:1008000025E420937C0080917A00806480937A00B4
:1008100080917A0086FDFCCFA0907800B09079009E
:1008200083E191E00E94610225010B2C000C660817
:10083000770877FE5BC06DE28AE391E00E949E013B
:1008400022273327A901241935094609570919A276
:100850008E010F5D1F4FCA01B9012AE030E040E070
:1008600050E00E949A05605DF80162938F012115A6
:1008700031054105510579F70115110519F0C80138
:100880000E9461028CE191E00E946102F9ECAF16D6
:10089000B1040CF41EC1809100018A3009F03EC001
:1008A000E8EBF0E0149117FDDBC061E08AE00E9404
:1008B0000B02112309F4A4C0123009F0B5C08091D5
:1008C000B100887F83608093B10089EF8093B3008B
:1008D000C0922E01D0922F01E0923001F0923101AE
:1008E00080917000826080937000BAC0A301920171
:1008F00019A28E010F5D1F4FCA01B9012AE030E035
:1009000040E050E00E949A05605DF80162938F011B
:10091000211531054105510579F7AECF8F3F09F01B
:100920009FC08AE080930001E8EBF0E014911F3F44
:1009300009F496C0113021F150F0123009F43EC094
:1009400017FD8EC061E08AE00E940B02B5CF14BC97
:1009500015BC84B5826084BD85B5816085BDF1011B
:100960008491E82FF0E0EE0FFF1FE656FF4F8591D0
:100970009491E0E9F0E0849180932D0110E095CF0F
:100980001092800010928100809181008860809395
:10099000810080918100816080938100F1018491C8
:1009A000E82FF0E0EE0FFF1FE656FF4F8591949180
:1009B000E0E9F0E0849180932C0177CF1092B000B1
:1009C0001092B1008091B00082608093B00080915D
:1009D000B10081608093B100F1018491E82FF0E0D3
:1009E000EE0FFF1FE656FF4F8591949190932B01D8
:1009F00080932A01E0E9F0E084918093290155CFAA
:100A000085B5887F836085BD8CE787BDC092360140
:100A1000D0923701E0923801F092390180916E0056
:100A2000826080936E001CC0113009F04AC0809132
:100A30008100887F8160809381008FE39FE19093A4
:100A4000890080938800C0923201D0923301E092F5
:100A50003401F092350180916F00826080936F00C5
:100A60000E943C024B015C0184E6482E512C612C13
:100A7000712C0E943C02681979098A099B09683E19
:100A8000734081059105A8F391E0491A5108610866
:100A90007108E8EE8E0EE3E09E1EA11CB11C41140D
:100AA00051046104710429F780E090E0892B09F476
:100AB000A7CE0E946801882309F4A2CE0E940000FC
:100AC0009FCE123021F01111CBCF8FE39ECF8FE359
:100AD000FDCE8AE00E948800C3CFEAE3F1E01382F2
:100AE000128288EE93E0A0E0B0E084839583A68331
:100AF000B78385E091E09183808385EC90E09587D2
:100B0000848784EC90E09787868780EC90E0918BD7
:100B1000808B81EC90E0938B828B82EC90E0958BC4
:100B2000848B86EC90E0978B868B118E128E138EC1
:100B3000148E0895A1E21A2EAA1BBB1BFD010DC045
:100B4000AA1FBB1FEE1FFF1FA217B307E407F5077D
:100B500020F0A21BB30BE40BF50B661F771F881F59
:100B6000991F1A9469F760957095809590959B01EF
:100B7000AC01BD01CF010895EE0FFF1F0590F49168
:080B8000E02D0994F894FFCF69
:100B8800FF000000009E01FE002B01EB015C013A12
:100B9800014E0150696E2041303A20000D0A0000D4
:00000001FF
